:020000024000BC
:10000000FFFFFFFFAD4100444EDCB0A5F00DC5ACD5
:10001000C88A4CC95CE6F5AB686940B978BDE75958
:10002000E70AC13AC044466E71A0390653605822AF
:100030007D8F99D85326EFB998BB8EBCD03F7D7287
:100040004A85D0B96571A6BD2639D07AC9A9E172B1
:1000500024D38CC1C36A182220278794EF6BE5A5AF
:1000600078E70D273F2FBE06D9DBBEC71EFFDC2574
:100070009110387A8378829A0DC81BEF474C9A8783
:100080005D217165A1F6CCFB0E89BA2BAEBD6A2845
:1000900026488750BA8A8BD7E508499DD51EAD3FC3
:1000A000171128C694A426B2147D4D874CAFEB518E
:1000B000DE9F02D47ECDFF4F09718E738D58716B18
:1000C0008DB4F3A51A8EA84B5E975E61D0B81D2E35
:1000D0001756E48B8C1829D5D4C425558331596F14
:1000E0002E9A2977ED35CE5700FD8DBF85420FD270
:1000F000E11D9DC367BC991E13F2326D9951E64212
:10010000BA0890D8789FDF5DD4C99EA2F9219C27B8
:100110008A6014D7558D14656B4096FB62F55D407F
:10012000163F055F794F8B18A33E3AF04AD9D24C5F
:10013000D378B1A944EA8B5E9FDA12346615CED625
:10014000D66DDC85D05E8B4BE52E503D71F6C04000
:10015000BEFAF4C38B8265994BDD3A6D110A84D9DE
:10016000F63AFEA4FC88367416DB34E97EB2D0037E
:100170008A4024FF210A279B6873C6BBDE7EDC6CA5
:1001800080FFAA0A0A231397020000000000000063
:10019000000000000000000000000000000000005F
:1001A000000000000F1566AA11C621BC384C41E9B9
:1001B0007B4DF54E45C5FFDE0048C644C3626A84E8
:1001C000AD538EE6BC17A4FF97EA50364D849534A4
:1001D0002181BFE5334D3AA7B89C87871DBFA20296
:1001E000995E40A56CB59727B3F5961921F1FAD31E
:1001F000154EA21F94732FFABE4FD7743571DC646D
:10020000375F5109718E176E151E1356B64F1DE4D8
:10021000366979D4304384D62096FFF25A5C67DA87
:10022000659F4A1EC35D5BFC601D0D610D2BDE5397
:10023000555D7C39C23573C1327919C32F363E26DC
:100240005C84E66C8BB67C207A9B2D8FF69D150125
:100250003213C71A576119F41B847FD778AE63A98C
:10026000CBEBB73FCFAF78290C76FD5366BC041AB1
:10027000257260DE37602FB467B70BC9F9D9AA18A9
:10028000B0AC6644596E0202603DF73BB6D390DED7
:10029000EC49DEF9B705A0EEBF8A20482AD6884D82
:1002A0002895BAD53BD1485CA919BC2E0485B21E4D
:1002B000C8F773B9CB6F78C5A43F8B8BB58BF1D3DF
:1002C000DF8A699B55622A1C202FA8DA633872875F
:1002D000BFA070FB289121243CF584CA4CA2592B65
:1002E000F7E218ED00BE6B862C54016983C069AB40
:1002F0005470D79D06EA4FE80ED29DFF06414C5937
:100300008CF99A25AAA7ACCFD24B34C11769867253
:1003100044C56828EBB0C1A626D8D6E3BD952A23EC
:1003200002CC6A6EBF81746D0030000000000400D2
:10033000B62904000004040060220400000000004C
:10034000000000008800000000000020F8FFFFFF10
:10035000FFFFFFFFFFFFFFFFFFFFFFFF00000000A9
:10036000000000000E00000082121867000000006C
:10037000B1000000FFFFFFFF0D00000000000000C3
:100380000300000033333333333333333333333306
:10039000333333333333333333333333333333332D
:1003A000333333333333333333333333333333331D
:1003B000333333333333333333333333333333330D
:1003C00033333333333333333333333333333333FD
:1003D00033333333333333333333333300000000B9
:1003E00033333333333333333333333333333333DD
:1003F0000000000000000000384E465530036B211D
:1004000000000200B11804009121040091210400B1
:100410009121040091210400912104009121040004
:1004200091210400912104009121040091210400F4
:1004300091210400912104009121040091210400E4
:1004400070B588B000F05AFA00F07CFF3E4B1B6894
:1004500013F0E10F6DD16FF0010000F071FE4FF469
:1004600000520021282000F0E9FCB0FA80F149098F
:10047000364800F07DFF01F079F800F053FA0146AC
:10048000334800F0DEFA334BD3F88043204600F0C7
:10049000CDFF2146092000F0ABFF00F0E5FD00F0A4
:1004A00009FF6FF0010000F04BFE00F085F94FF4FA
:1004B00004214FF4882000F089FE002815BF4FF476
:1004C00004254FF488254FF488264FF4042600F0C5
:1004D000BBFE10B133462E461D466FF0010000F002
:1004E0002FFE00F077FF0446684600F047FE6A469C
:1004F0004FF47031304601F039FC204600F072FFB5
:100500006A464FF47031284601F030FC124800F082
:1005100098FA002001F03AFA00F0EEFF7228FBD1C1
:10052000002001F043FA3C2000F0DCFE002008B07F
:1005300070BD0A48016841F4800100F019FF00BF56
:10054000074B01221A6086E70C000040D0400940AA
:1005500054220400000004006022040064000040F3
:1005600010005540F0B5ADF66C0D874B1C1D03F522
:1005700000604FF0FF3253F8041F0A409842FAD14E
:10058000B2F1FF3F03D001200DF66C0DF0BD7F4BA3
:100590001B6813F0010F00F0F38000F051F900F038
:1005A000E5FCB0F5806FFAD1002100F04BFD00F0C2
:1005B000DDFCB0F5806FFAD14FF480611AA800F02D
:1005C0001FFD4FF480611AA800F0ECFC4FF480612D
:1005D000084600F037FD00F0C9FCB0F5806FFAD195
:1005E0004FF480610DF58D6000F00AFD00214FF49D
:1005F000806000F027FD0020654B18600433186010
:10060000043318600433186004331860043318602E
:10061000043318600433186008331860043B022266
:100620001A600246014600F009FC08B10320ABE75E
:1006300000221146032000F001FC0028F6D1002220
:100640001146042000F0FAFB0028EFD100221146E9
:10065000052000F0F3FB0028E8D100221146072016
:1006600000F0ECFB0028E1D1002211460F2000F041
:10067000E5FB0028DAD100221146142000F0DEFB51
:100680000028D3D1FE25002719263A4639463046A0
:1006900000F0D4FB0028C9D1013DF6D1002211465B
:1006A0001A2000F0CBFB0028C0D13A4B1B68029304
:1006B000394B1B680393394B1B680493384B1B68F9
:1006C0000593384B1B680693374B1B680793374BD2
:1006D0001B680893364B1B6809930AAE4FF4C0752C
:1006E0003146284600F076FA00289FD101350436BD
:1006F000B5F5C47FF4D109AB01A911AD53F8042FAE
:1007000051F8040F42401A60AB42F7D10AA912A86F
:1007100000F062FB0422274912A800F07DFB12A81A
:1007200000F080FB12A9084600F056FB4FF4FC6273
:100730001AA912A800F070FB12A800F073FB0DF6C6
:10074000470201380DF66706002112F8013F10F844
:10075000015F6B401943B242F7D199B9002300936E
:100760004FF400731AAAC4F38F01B4F5002F34BFFD
:100770000020012000F0E2F9002818BF042003E760
:10078000022001E70320FFE6FC37040000002040C0
:100790000031574000335740043357400833574027
:1007A0000C335740103357401433574018335740D9
:1007B0001C3357407C2204000E4B1B6813F0100FB3
:1007C00000D070470C4B1B6813F0010FF9D010B527
:1007D00000F068FB094800F034F9FFF7C3FE044657
:1007E0000146074800F02DF944F08004054B1C60D9
:1007F00010BD00BF58014540000020408022040089
:100800008822040004005140034A1368591C1160F7
:10081000187000225A707047280801000FB400B504
:1008200083B004AA52F8041B0192044800F09FF818
:1008300003B05DF804EB04B0704700BF0908040082
:10084000F0B585B0274B002103F5806243F8041B07
:100850009342FBD12449B2234B604FF400430B81F8
:10086000224B1A6812BA04331B681BBA204804686A
:1008700004300568183006684889471C4F8101EB31
:1008800040100C3008601B490968090F032927D064
:10089000042914BFFF2101214FF400700390F6B228
:1008A0000296EDB20195E4B200941348FFF7B6FF4B
:1008B0000D4A141D02F579724FF47871204600F04C
:1008C00061FA4FF48061204600F06CFB00F0B0FB51
:1008D0000028FBD14FF4806100F0B4FB05B0F0BDFF
:1008E0000021D9E72C0801002808010044004540F8
:1008F00000305740F8FF01408C220400064A13687C
:1009000043F080731360054A136843F001031360DA
:10091000034B00221A607047FCED00E0001000E07D
:10092000AC180100014B1868704700BF041000E0CC
:1009300008B50346014A505C984708BDCC2804001E
:1009400070B5064615461C460139002901DC9A425D
:1009500005D32346B5FBF4F23046FFF7F1FFB5FBB4
:10096000F4F104FB11513046FFF7E2FF70BD2DE9B1
:10097000F84F0C78FCB106460D4617464FF00008BC
:100980004FF00A094FF02D0A04E02046B0475D46BB
:100990002C7884B105F1010B252C3AD00A2CF4D126
:1009A0000D20B047F1E70BEB8B0B303C04EB4B0B0E
:1009B00012F8014B94BBBDE8F88F2CBB2520B04743
:1009C000E6E7752C18D0782C1ED157F8042B10238D
:1009D00059463046FFF7B4FFDAE757F8044B002CCE
:1009E00006DB4B46224659463046FFF7A9FFCFE7C4
:1009F0005046B0476442F4E74B4657F8042B59463B
:100A00003046FFF79DFFC3E72520B0472046B0479B
:100A1000BEE76C78002CCED0AA1CC3461546A4F1C4
:100A20003003DBB2092BBED9642CD6D0C9D8252C13
:100A3000C4D0582CC1D157F8042B12BA4FF0080B70
:100A4000C5E70FB400B583B004AA52F8041B0192A5
:100A50000348FFF78CFF03B05DF804EB04B0704768
:100A6000BD1504000D4B0E4A1A6000F1805202F5CC
:100A7000E4129200116064230849086820B1013B28
:100A8000FBD1002313607047064B10680028FAD092
:100A9000013BFAD100231360704700BFC8007240C9
:100AA000E12419B180841E00F8B505461F484FF0B7
:100AB000FF3404600468002606601D48844227D184
:100AC0000698000400F4803089B20143581E4004A7
:100AD00000F4781001431548016053B1111F01EB78
:100AE00083044430801A431851F8042F1A60A1423D
:100AF000F9D108240F4E104F31462846FFF7B2FFB8
:100B0000034618B93B6833B1013CF5D11846F8BD2E
:100B100003466340FAE707492846FFF7A3FF034669
:100B20000028F3D1044B1B68F0E700BF08007240B7
:100B3000FFFF3F0018281827D40072402DE9F04F1E
:100B400083B080460D469346DDF8309001F01F02D9
:100B5000D4181F2C1FD80027202B2DD90BEB87066C
:100B60001C464FF0200A1F445744CDF800905346CE
:100B7000324629464046FFF797FF034638B93A1BED
:100B8000203C20358036202CEFD8C4B900231846ED
:100B900003B0BDE8F08FC2F12007CDF800903B46CE
:100BA0005A46FFF781FF03460028F0D1A4F1200345
:100BB00025F01F052035CFE73A461C46E5E7CDF87E
:100BC000009023460BEB820229464046FFF76CFF5C
:100BD0000346DCE710B50C460F4B4FF0FF321A60AE
:100BE0001A68002119600D4B9A4202D018465040F5
:100BF00010BD80B240F44030074B18600849012016
:100C0000FFF730FF0028F3D1064B18680028EFD11A
:100C1000943B1B682360EBE708007240FFFF3F0036
:100C200065170216D4007240F8B50546124B4FF016
:100C3000FF301860186800241C60104B984216D1D1
:100C4000490289B2120402F4803211430A4B19603E
:100C50002D240B4E0B4F31462846FFF703FF02466B
:100C600038B93B682BB1013CF5D1082201E0034AB9
:100C700042401046F8BD00BF08007240FFFF3F0031
:100C800027594131D400724070B4002956D00C4627
:100C900010F0030F08D02A4A10F8013B1370013CF2
:100CA0004CD010F0030FF7D11F2C43D900F12003D3
:100CB000A4F12002510900F1400622F01F0216445F
:100CC0001F4A53F8205C156053F81C5C156053F8FC
:100CD000185C156053F8145C156053F8105C1560CF
:100CE00053F80C5C156053F8085C156053F8045C0D
:100CF00015602033B342E4D14B1C00EB431304F0E6
:100D00001F04032C18D9201F20F0030004301844BE
:100D10000B4953F8042B0A608342FAD104F0030410
:100D200034B10444064A10F8013B13708442FAD1EE
:100D300070BC70470346E4E71846F1E70024EFE78C
:100D4000400457400D4A1368002BFCD0002910DDE9
:100D500010B400EB81010346094C241A1A191268D9
:100D600043F8042B8B42F9D1044B00221A6010BCCB
:100D70007047024B00221A60704700BF8C04574036
:100D80004404574038B5144600220A4D2A608C3D71
:100D90002960094B1A6004334FF480321A6008331B
:100DA00001221A60FFF770FF08212046FFF7CAFFF3
:100DB00038BD00BF8C04574004045740044B002248
:100DC0001A60843B034A1A60083301221A60704794
:100DD0008C0457401000010010B40B4B00221A6025
:100DE0000B1F01F11C040948401AC21853F8041FD4
:100DF0001160A342F9D1064B064A1A60083301225A
:100E00001A6010BC704700BF8C04574068045740FC
:100E1000080457403000010008B508461146FFF7A6
:100E200033FF08BD10B504460821034B1960FFF7D6
:100E300089FF204610BD00BF1004574038B5044656
:100E40000846154B0021196044F040010833196031
:100E50008C3B4FF4803119600833012119606AB965
:100E60000D4A1368002BFCD00B4B00221A6003F5CF
:100E70003A5318331D6845B9284638BD1146FFF767
:100E800003FF064B08221A60EAE72A462146044877
:100E9000FFF7D7FDF0E700BF8C0457401004574020
:100EA000E0280400224B4FF080521A604FF00052AD
:100EB0001A60204A136843F004031360203A136851
:100EC00043F0040313605032136843F004031360CB
:100ED000103A136823F0040313600021164B1960C5
:100EE000643B1A6822F003021A601A6822F00802B2
:100EF0001A601A6822F004021A601A6842F010029E
:100F00001A601A6842F020021A601A6842F0400221
:100F10001A6004331960243303221A601A6842F0FD
:100F200010021A601A6842F002021A60704700BF8D
:100F3000640000405C00064064005140014B1868AA
:100F4000704700BF40005140014B1868704700BF18
:100F500044005140014B1868704700BF30005140B9
:100F6000014B1868704700BF340051400C4B1868A3
:100F700004331B6883EA000212F4806F0AD1C0F3C5
:100F80000900C3F30903984207D088BF03F58063C3
:100F9000181A70474FF4806070470020704700BFF8
:100FA00040005140144B1B6811F0030F23D103295B
:100FB00021D970B4021D0C1F24F00304044408342A
:100FC000043B1D1A0D4E12F8041C12F8030C12F803
:100FD000023C1B0443EA00230B4312F8011C43EAC2
:100FE0000163A918C1F3870146F821300432A242F7
:100FF000E9D170BC70477047340051400010514037
:10100000094B1A6871B110B441180346101A074C05
:101010001A18C2F30902125D03F8012B8B42F7D1B3
:1010200010BC7047704700BF400051400014514051
:10103000034B186880F00400C0F38000704700BFC5
:101040005000514010B4054C226802440448036823
:101050000B442260036010BC704700BF4000514049
:1010600034005140704700BF2DE9F041214F3D460B
:10107000214C0FCC0FC594E80F0085E80F00DFF876
:10108000A08044463E460FCE0FC495E80F0084E88A
:101090000F00DFF890C0654646460FCE0FC594E8B6
:1010A0000F0085E80F006146144800F061F91F2128
:1010B000134800F05DF90121124800F059F941464A
:1010C000114800F055F91F21104800F051F9012195
:1010D0000F4800F04DF939460E4800F049F91F213C
:1010E0000D4800F045F901210C4800F041F9BDE838
:1010F000F08100BF8C180100002904003001094074
:101100003401094000000940380109403C01094010
:101110000400094040010940440109400800094019
:10112000080801004806010008B5024602480349C4
:10113000091AFFF727FE08BD68060100080801002C
:1011400008B5094B094A1A6010F0010F02D0084B8C
:1011500001221A600021074800F00AF90021064820
:1011600000F006F908BD00BFA80457403C30FC035E
:101170000C0072409000004098000040F8B507460F
:10118000051F00F11C062C4600F0E6FD44F8040F94
:10119000B442F9D13846FFF7C7FF0B482946002271
:1011A00051F8043F50F8044F63401A43B142F7D15D
:1011B000B2FA82F25209544200F0CEFD204045F8C6
:1011C000040FB542F8D1F8BD1C2904000B68B3F137
:1011D000FF3F33D10368B3F1FF3F31D1D0F85C3327
:1011E000D1F85C23934204D0934294BF00200120A5
:1011F0007047D0F86033D1F86023934204D0934213
:1012000094BF002001207047D0F86433D1F86423E4
:10121000934204D0934294BF002001207047D0E94C
:10122000DA23D1E9DA018B4208BF82420AD099421F
:1012300008BF904234BF0120002070470120704752
:10124000002070470120704770B50D4B1D6805F0F8
:101250000F0421460B48FFF7F4FB0F2C04D1052C9B
:1012600094BF0020012070BD074E01233360E918B0
:10127000034800F07DF80021304600F079F8EEE7F1
:101280002C010040F42804002801004008B5072183
:10129000054800F06DF80721044800F069F80721BF
:1012A000034800F065F808BD00000940040009404B
:1012B0000800094008B54FF48721064800F058F8A7
:1012C0000549064800F054F80721054800F050F899
:1012D00008BD00BF38020940FFC707003C020940B3
:1012E000E400094008B5044600F026F90028FBD0C8
:1012F000B4F1FF3F17D00E4B04221A604FF47A333B
:1013000003FB04F40B4B1C60083B01221A600A4BE0
:1013100010221A60383B1E221A601A6842F001023D
:101320001A6030BFFDE7054B054A1A60E3E700BFCE
:101330006C000040480054404C0000401000004049
:1013400076170407094B5B68C72B0ED8074A023390
:1013500002EB830302F54A724FF0FF300021C3F81D
:10136000200343F8041B9342F9D1704700000100A9
:1013700030B4164B5A6822B303F54974002354F86D
:10138000045FA84210D001339A42F8D1C72A18D975
:101390000E4C02F1CA0344F8230002320C4B4B40BE
:1013A00044F82230016008E0934208D00233084A32
:1013B0004A40064C44F82320016030BC70471A466E
:1013C000E4E7531C014C6360E2E700BF000001004A
:1013D00095716834024B186801301860704700BF7F
:1013E00000000100014B1860704700BF00000100C1
:1013F00008B50B4B1A680B4B1B68834202D1FFF7F1
:10140000E9FF08BD40EA0340074B1860043305209C
:101410001860C2F38100084300F0BCFEEFE700BF94
:101420005001454000000100100100402DE9F84343
:10143000804600211E48FFF79BFF00F083FC1D4BF8
:101440005B688BB3044600261A4D1B4FDFF874907F
:1014500018E07B401948FFF7F4FAD9F8000004F1CE
:10146000CA0355F82320164B1A60043304221A606D
:10147000C0F3810040EA080000F08CFE01366B6882
:10148000B34211D9D334B4FBF3F003FB104404F19D
:10149000CA0355F823100A68A31C55F8233082EAC2
:1014A00007009842EAD0D4E7FFF794FFBDE8F8833D
:1014B0001C000B40000001009571683440290400B5
:1014C0001001004050014540024B1868C0F38020D5
:1014D000704700BF3001004008B5FFF7F5FF30B995
:1014E000044B186880F08000C0F3C01008BD0020D5
:1014F000FCE700BF1400604008B5FFF7E5FF30B916
:10150000FFF7EAFF0028FBD0024B186808BD002057
:10151000FCE700BF0000604008B5FFF7D5FF30B919
:10152000044B186880F0010000F0010008BD0120A4
:10153000FCE700BF1400604008B5FFF7C5FF68B9BD
:10154000084B1B6813F0010F0AD0074B186800F016
:101550003000302814BF0020012008BD0120FCE726
:101560000120FAE70C0060401400604008B5FFF766
:10157000ABFF00B108BD0E4A136843F020031360AF
:10158000FFF7DAFF0028FBD00A4B46221A6003F56A
:10159000F0730C221A60A3F5BA7306221A60064B88
:1015A00041F2A9321A60043303221A60E2E700BF55
:1015B0006C000040280006400800604010B504465A
:1015C000FFF782FF28B9FFF7A7FF0028FBD0014BE8
:1015D0001C6010BD04006040704710B50446FFF762
:1015E00073FF00B110BD2046FFF7E8FFFAE700BF28
:1015F0002DE9F04F8B4611461E4691461C68DBF8DC
:1016000000200023E1FB042311469C4617464FF0BF
:101610000008044654F8083B01FB03FE4368EEFB58
:10162000037847465D4600F5C2784FF0000A56F849
:10163000042FA2FB092312EB0C0243F1000369689B
:10164000521843F100039C4654F8040BA0FB0E0112
:10165000C01941F10001821841EB0A0745F8042B3B
:101660004445E4D16744CBF87C71BDE8F08F2DE9A7
:10167000F04107460E4698460C1F01F5BE71002347
:1016800044F8043F8C42FBD1141F02F5BE7543465B
:1016900054F8042F31463846FFF7AAFFAC42F6D182
:1016A000BDE8F08103680C4A126893420ED00B4AE1
:1016B000126893420CD00A4A126893420AD0094A2F
:1016C00012680848934218BF0020704702487047CC
:1016D000024870470248704744270400BC250400B4
:1016E00034240400AC2204002DE9F0470F461446D0
:1016F000FFF7D8FF002800F08B8006463B463A46AD
:101700005849FFF7B4FFD6F88431B3F1011F00F058
:101710008180544A3B4602F5C0713046FFF7A7FF6F
:10172000514F3B1F07F5BE71002243F8042F8B4237
:10173000FBD14E4B01224C493046FFF759FF5F2544
:10174000DFF828A1DFF820914FF000085346424609
:1017500049463046FFF74CFF013DF7D1424BD3F8E5
:10176000FC10D3F87C214A40C3F87C21404A4A400F
:10177000C3F8FC20F83307F5BC7753F8042FD243A5
:101780001A60BB42F9D100F0DDFA6021394E364AC9
:1017900000F1D303A6FB0350800900EB4000A3EB4C
:1017A000401000F5805552F820306B4042F8203050
:1017B0000139EDD100F0C6FA08212B4DD33000F0ED
:1017C0000700C0F1070354F8232012BA00F11003F8
:1017D00055F820607340534045F820300139EDD171
:1017E000214C04F5C0752A464FF4C0712046FFF71E
:1017F000C9FA04F5BE7304F5CE701F4C641BE218E1
:1018000053F8041F11608342F9D11C4B00221A6067
:10181000BDE8F0874FF00709124D05F5C0782B465B
:101820002A4641463046FFF722FF434642462946B4
:101830003046FFF71CFFB9F10109F0D1094D2B46E5
:101840002A4605F5C0713046FFF711FF05F5BE7356
:101850002A1F05F53F7553F8040F42F8040FAB42F9
:10186000F9D156E72C0C010068060100AC0D01000F
:10187000FFFF0100ABAAAAAA0810094024100940E2
:101880004FF4C2707047064B1B68834205D0054B6E
:101890001B68181A18BF012070470020704700BF4E
:1018A00034240400AC22040008B5FFF7ECFF08BDA7
:1018B0000848C0F5FF3202F58072002100F00EF8F2
:1018C000FEF7BEFDC3B243F08003034A136020BF9E
:1018D000FDE700BF2808010004005140F0B4C9B280
:1018E0000B0443EA01630B4343EA0121002A4AD077
:1018F000164610F0030F40D0024602F8011B013ECD
:1019000042D012F0030FF8D11F2E38D902F1200374
:10191000A6F120077C0902F1400527F01F073D448E
:1019200043F8201C43F81C1C43F8181C43F8141CF3
:1019300043F8101C43F80C1C43F8081C43F8041C23
:101940002033AB42ECD1631C02EB431306F01F06BD
:10195000032E16D9321F22F0030204321A4443F830
:10196000041B9342FBD106F0030626B1164402F88D
:10197000011B9642FBD1F0BC70470246C4E71346F8
:10198000E6E71A46F1E702460026EEE708B5054B02
:101990001B68184200D008BD0348FFF752F8FFF754
:1019A0001BFEF8E70C000040582904002DE9F04F19
:1019B00087B003906520FFF710FE7320FFF70DFE40
:1019C0006320FFF70AFE7520FFF707FE6520FFF78B
:1019D00004FE002302939A464FF0FF3B9946DFF83E
:1019E000048308F5806408F588630493D2E0D8F88E
:1019F0002860B6F1FF3F40F05481D8F85033A3F58A
:101A00000062B2F56E3F00F24E81D8F82420B2F5A4
:101A1000804F40F04A81C3F30A03002B40F0478116
:101A200008F5E670FFF73EFE002800F04281039BB8
:101A300023B1602200211846FFF750FF08274FF01E
:101A4000000A524639465046FFF7EEF8002840F0AB
:101A500032810137802FF4D108274FF0000A524617
:101A600039460120FFF7E0F8002840F026810137D1
:101A7000802FF4D14FF488229849136850680340AE
:101A800090681840D368184013691840536918408B
:101A90009369034017462032F86903401E408F4285
:101AA000EBD14FF404228E491368506803409068CC
:101AB0001840D36818401369184053691840936957
:101AC000034017462032F86903401E408F42EBD195
:101AD000B6F1FF3F40F0F380D8F824A099E000234E
:101AE00000934B46049ACAF38F014FEA9A40FFF7DE
:101AF00025F8002840F0E7804FF0FF3BA1E04E467C
:101B0000A1E0BBF1FF3F06D10AF1800ADDF8149095
:101B10004FF0FF3B25E0002300932023049ACAF3F3
:101B20008F014FEA9A40FFF709F80028ECD00C200B
:101B3000D0E0B7421CD056F8042F09F1010308EB9E
:101B40008909C9F840240BEA020B0AEB8302B2F5BB
:101B5000002F00F2BC80202BD3D0202B00F2B980C4
:101B60009946BAF5002FE4D3D8F82030002BE0DAFC
:101B7000029B0133029308F21F4608F23F4716F812
:101B8000010FFFF72AFDBE42F9D11DB9D8F8203068
:101B9000002B6CDB534DFFF7AFFC05F8010BA542A2
:101BA000F9D122464FF4787108F12000FFF7EAF8E6
:101BB000A8F1040208F57F7108F11C06002552F80F
:101BC000043F51F8040F43401D43B242F7D1002DAA
:101BD000D1D1D8F8203023F07F43029A9342CAD162
:101BE00022464FF480614046FFF7CCF808F2FF32FE
:101BF00008F21F41084612F8013F002B08BF43F0CE
:101C0000010301F8013F8242F5D1029B002B3FF412
:101C1000EEAE039B23B1602200211846FFF75EFE63
:101C2000D8F824600AEB89039E427FF668AF16F06D
:101C30007F0646D1B9F1000F03D0BBF1FF3F7FF41F
:101C40004EAFD8F824A0D8F82820731C08EB8606DD
:101C5000C6F840240BEA020B0AEB8302B2F5002F10
:101C600033D808F1280608F57F77059573E7B9F1B1
:101C7000000F02D0BBF1FF3F05D14FF0FF30FFF75F
:101C800031FB002026E0002300934B46164ACAF39E
:101C90008F014FEA9A40FEF751FF0028EDD00E2049
:101CA00018E0012016E0022014E0032012E00420D6
:101CB00010E005200EE006200CE006200AE00720D8
:101CC00008E0092006E00A2004E00B2002E00B20D7
:101CD00000E00D2007B0BDE8F08F00BFE0FF070077
:101CE000E0FF0B002C0F01006C130100114B1B686F
:101CF00018421CD110B50C46FFF7EEFB18B1FFF7E8
:101D0000FBFB722806D0FFF731FC0B48FEF799FE6B
:101D10000A4810BD2046FFF749FE052801DC0748A8
:101D2000F7E74FF0FF30FFF7DDFA0548F1E703482A
:101D3000704700BF0C00004060290400C33C5A1AE1
:101D40003CC3A5E508B5FEF7EDFD024B1B68184442
:101D500080B208BD7000414008B5FEF7E3FD024BBC
:101D60001B68184408BD00BF700041402DE9F04FCA
:101D700083B0694B00241C605C609C60DC601C616B
:101D80005C619C61DC610368B3F1FF3F1AD10546D9
:101D900017460646D0F82833B3F5006F12D38B42AE
:101DA00010D8D0F82C3383420CD30144D0F8303310
:101DB0008B4207D8D0F83433834203D3D0F838337A
:101DC000994202D203B0BDE8F08F00F5D27A5046B6
:101DD000FFF768FC0028F5D00220FFF7D7FDD5F803
:101DE00034134E48FFF7C4FAD5F83833013BD5F821
:101DF0003413591A4A48FFF7BBFA03214948FFF741
:101E0000B7FA454C04F120084046FEF7D7FF1C22E4
:101E100005F5C4714046FEF7FFFF5046FFF742FC50
:101E20008146FFF72DFD024649464046FEF7F4FF86
:101E3000D5F82823A2F54A7205F54A714046FEF707
:101E4000EBFF4046FEF7EEFF04F17C0304F51F7242
:101E5000354943F8041F9342FBD100230120DFF8EA
:101E6000DCC0324C591106EB810103F01F0200FA6D
:101E700002F2D1F83C130A421CBF5CF8232044F85C
:101E800023200133802BEDD1D5F8A401FFF7FBFC13
:101E9000834618B9D5F87833002B08DA244B1A6832
:101EA0001D4BC3F89420234A1268C3F898201A4C9B
:101EB00004F140024FF4007104F18000FEF762FF6C
:101EC00004F51F7304F27C421B4943F8041F93423C
:101ED000FBD100244FF00108DFF8649010E00023EC
:101EE000019301A904F18000FEF774FE59F8243033
:101EF000019A5340434049F824300134802C21D0CA
:101F0000621106EB820204F01F0308FA03F3D2F811
:101F10004C231342F1D0E2E7EC13010080020940A8
:101F2000840209407C020940ACDABAA36C140100B7
:101F30004400454048004540C3553CAA3000454058
:101F40006C1601007A4800F160024FF4007100F550
:101F50002070FEF717FF77490220FFF7C7FE764B88
:101F6000984240F0C680724E316AD5F884318B4277
:101F700014BF00230123F26B7048FEF762FD316C41
:101F8000D5F8F8338B4214BF00230123F26D6C485F
:101F9000FEF757FD316ED5F8FC338B4214BF00239A
:101FA0000123F26F6748FEF74CFD3246602106F1CF
:101FB0002000FEF7E7FE341F391F06F27C431C3772
:101FC0001E46204650F8042F51F804CF82EA0C0236
:101FD00046F8042FB942F5D1554A02F29C465A48B8
:101FE000801AC21853F8041F1160B342F9D1574B3D
:101FF00000221A6000BF243B1B6813F0010F7DD044
:10200000534B1B6813F0010F3FF4DCAE0021514825
:10201000FFF7AEF933215048FFF7AAF905F5C4766A
:102020004E4C4F4F56F8041B2046FFF7A1F90434DD
:10203000BC42F7D1D5F8A401FFF725FC40EA0B011B
:102040004748FFF795F9D5F8A401FFF71CFC40EAD3
:102050000B014448FEF7F5FCD5F8A401FFF724FC7A
:1020600018B9D5F87833002B03DB4FF0FF30FFF7BA
:1020700067F8D5F860133C48FFF77AF902213B482E
:10208000FFF776F900213A48FFF772F929463948F7
:10209000FFF76EF9D5F8281301393748FFF768F9CB
:1020A00003213648FFF764F900213548FFF760F94E
:1020B000344BD3F88043D5F880032043FFF7B6F9BB
:1020C000FFF7E4F8D5F880032043FFF7AFF9D5F820
:1020D000801321430D20FFF78BF905F58064294615
:1020E0002948FEF7AEFC294B1C60D4F800D0D4F888
:1020F00004F04FF0FF30FFF7F5F834E70C4A291DE4
:102100005046FFF7F1FA124B1B6813F0010F3FF432
:1021100077AF074E06F11C07C6F18046C43630196A
:1021200054F8041FFFF724F9A742F8D168E700BF6D
:10213000EC1301000C140100C33C5A1A642904007A
:10214000782904008C290400880B094024100940D8
:102150000010094024010040DC02094000315740D2
:102160001C315740A02904002431574020315740EA
:1021700028315740380209403C020940E400094038
:102180000401094000000400AC29040008ED00E04F
:1021900030BFFDE7032803D0831E012B47D97047CA
:1021A000244B1B684FF0FF3223490A6001F5A81148
:1021B00060310A6001F5495130310A6013F4005F63
:1021C00009D00022A1F59C01A1F54B510A60803194
:1021D0000A601C310A6013F4804F09D0174A4FF48B
:1021E000002111604032012111606C3AA921116077
:1021F00013F4004F0BD0012211490A604C394FF4FF
:102200000020086040310A600E4AA921116013F4D1
:10221000805F0CD010B40C4A0C4800230C491468A1
:1022200003600B601360332CF9D120BFFDE720BFA2
:10223000FDE700BF50014540500042402C4009409E
:102240007840094000400940D0020940D8020940C6
:10225000D40209400A426C6472207C25750A000091
:102260004E6F2076616C696420525720696D6167FA
:102270006520666F756E642E0A000000525341009F
:10228000626F6F74203A000025640A0025303278AE
:102290003A25303878253038783A2530327825306C
:1022A0003278253032783A2530347800673BB7876A
:1022B000A94F8371DBBD65CBFCB7BA286AF1FF83F8
:1022C0007242C05251B2A7D51C740CC7AE7B753890
:1022D000FC0F84227A8E3BC02B7B630BF4D7B6C9EC
:1022E0008CBBF41B79682D1C90FC991E9BF900DCBB
:1022F0003651736D3917E7C4DF25BB66EC6649B804
:102300004697A7BC8187302444BD5434601D9ECDC0
:102310001CDF4A0D8B7FE22BD2C1C6512D5A6C595E
:1023200051B287FB08D9C8D8AF345F8DC3E44A8E59
:1023300072F5884FD9601D904F045D7CE33ABABFB7
:102340004FE7EE4F4DA81B65861AE6FC72BCF13EC6
:10235000321ED222FF82403554AA6F6B6808851F57
:102360001D3B09CFD76057B10166C3231FA4E93BCA
:102370001368A19B45DAF31E85E1520B0C2D4276C2
:102380005667540C57B3D931C95E24EAD97B305D06
:10239000A46DBA3B032B70D2A4933FB357D872ED10
:1023A000BE78A1C079402295557DFACFD71A6CD35B
:1023B000000000000000000000000000000000001D
:1023C000000000000000000000000000000000000D
:1023D00000000000000000000000000000000000FD
:1023E00000000000000000000000000000000000ED
:1023F00000000000000000000000000000000000DD
:1024000000000000000000000000000000000000CC
:1024100000000000000000000000000000000000BC
:1024200000000000000000000000000000000000AC
:1024300003000000673BB787A94F8371DBBD65CB05
:10244000FCB7BA286AF1FF837242C05251B2A7D5D5
:102450001C740CC7AE7B7538FC0F84227A8E3BC08F
:102460002B7B630BF4D7B6C98CBBF41B79682D1C8E
:1024700090FC991E9BF900DC3651736D3917E7C447
:10248000DF25BB66EC6649B84697A7BC8187302438
:1024900044BD5434601D9ECD1CDF4A0D8B7FE22B62
:1024A000D2C1C6512D5A6C5951B287FB08D9C8D830
:1024B000AF345F8DC3E44A8E72F5884FD9601D90AA
:1024C0004F045D7CE33ABABF4FE7EE4F4DA81B6562
:1024D000861AE6FC72BCF13E321ED222FF824035E3
:1024E00054AA6F6B6808851F1D3B09CFD76057B191
:1024F0000166C3231FA4E93B1368A19B45DAF31EC1
:1025000085E1520B0C2D42765667540C57B3D931E6
:10251000C95E24EAD97B305DA46DBA3B032B70D22F
:10252000A4933FB357D872EDBE78A1C079402295ED
:10253000557DFACFD71A6CD30000000000000000D0
:10254000000000000000000000000000000000008B
:10255000000000000000000000000000000000007B
:10256000000000000000000000000000000000006B
:10257000000000000000000000000000000000005B
:10258000000000000000000000000000000000004B
:10259000000000000000000000000000000000003B
:1025A000000000000000000000000000000000002B
:1025B0000000000000000000030000007F593764A5
:1025C0008199E1BD8D060F66C998ED8F43D4DF5424
:1025D000B67A460F048033E16AA028F843152B43EE
:1025E0009D9E4A0331985E422281CDBA965DBC041D
:1025F0007BA775CDBE26CD295D4725D28B40F98EB0
:10260000063447B276CA70F70A0F778EDA2D9BDD53
:102610003FDA463398C545A8924287D72EC8F6C000
:10262000138C87EE4F90F148FF2A32CC9905605405
:102630009C2543D9A690818BB547E04BFECE146D07
:102640009CD48EE1C2D467F28D34658668DB70B3AA
:1026500003D91CC1CABBB64F4A57849A650CE85EC1
:1026600067C2A62B363AFDE284E7CABDDA43CDDA6B
:10267000BEE4F9DB241D88E012472834B82CDE962E
:1026800017DA88D5B7D3B0DADB27C569189519876B
:102690008FCF23DE5BE50081BF47E54394094C5CA7
:1026A000BDF7ADCF6BEDDC344B03005DFFCC02C159
:1026B000B40BFC122C13C8016060A4911F8AA1A462
:1026C000000000000000000000000000000000000A
:1026D00000000000000000000000000000000000FA
:1026E00000000000000000000000000000000000EA
:1026F00000000000000000000000000000000000DA
:1027000000000000000000000000000000000000C9
:1027100000000000000000000000000000000000B9
:1027200000000000000000000000000000000000A9
:102730000000000000000000000000000000000099
:1027400001000100DF704F33E1B44FA9505464F031
:10275000253DD439115448872CFD855FB51AE852C0
:10276000C650DDC20C7EA8B11FF3DAC8EE1084712A
:10277000BDD5573AC6D6EC0EDAA7B1840780CB2177
:10278000BE88830198EAAFAB9BF66E2D4960542456
:10279000EA773A56287C23BA662CB815CDB8FA8A5F
:1027A000B2F714D517BDA69693CF56C2C94F1FA234
:1027B00025FC51BF8AE9A9F6A05A38618D80C0E096
:1027C000CC4DBFE8400ED75DCF6C3C815A779E1947
:1027D00038F1BAD2D4D14B73B11E35D3C3C302572B
:1027E00056525FBFD045CA8696AC6EBCA09A77237E
:1027F0003957970F0728745F041329CA9AFFA887CF
:1028000016AE30B998FFFD95384C992E95440CEBD7
:10281000FF02EF26ED1B34E52D09BDC81DF1E4B420
:102820001E05C264388826C8138CDA42E2D165E3FB
:102830002CD1A7FA2B8A4E9273C33E3B0F047F8F95
:1028400039AF94436FC01BDC0000000000000000A3
:102850000000000000000000000000000000000078
:102860000000000000000000000000000000000068
:102870000000000000000000000000000000000058
:102880000000000000000000000000000000000048
:102890000000000000000000000000000000000038
:1028A0000000000000000000000000000000000028
:1028B0000000000000000000000000000000000018
:1028C000000000000000000003000000303132333F
:1028D000343536373839414243444546000000001C
:1028E00043657274202532753A206661696C202533
:1028F000780A000072657472797C25750A00000000
:102900005AA5AA55010000000200000003000000C3
:10291000040000000500000006000000A55A55AAAA
:10292000D3982DADC6CA5AA9197C240D00A1F0B5C3
:10293000204F0412FDF5C2A8CEB29B7F98ABB9AA76
:102940002165787020402538783A202578207673E4
:102950002E2025780A0000006F6F70733F7C000006
:102960006E6F0A0048696D67203D25582E2E255848
:102970003A2025640A00000048667373203D2558FC
:102980002E2E25583A2025640A00000048696E66FC
:10299000203D25582E2E25583A2025640A00000097
:1029A0006465766D203A25750A0000006A756D70C1
:1029B000204025780A00FFFFFFFFFFFFFFFFFFFF1A
:1029C000FFFFFFFFFFFFFFFFFFFFFFFFFFFFFFFF17
:1029D000FFFFFFFFFFFFFFFFFFFFFFFFFFFFFFFF07
:1029E000FFFFFFFFFFFFFFFFFFFFFFFFFFFFFFFFF7
:1029F000FFFFFFFFFFFFFFFFFFFFFFFFFFFFFFFFE7
