:020000024000BC
:10000000FFFFFFFF5A2EEEAB6B87459804E0731A93
:10001000DDE2E3B0B15F623C4F51F4FEEB65374087
:100020003A04EF377768E1F1E706724DF464DFAF29
:10003000E962886571CE4B23E7F4D61B2CDAEEC853
:100040005E070D6A48DD2BF7C3586E8DC0308639C8
:10005000C821A96B273B2B8FD2AEC8ED9A8227040B
:1000600002662731129F1CCD49FE5868B3B60A6E4E
:1000700031561FF5E3DDE5981704E5A1D369A12EFC
:100080002492E097E96DE6930E0E02C73F74D73FC6
:10009000E484C470C5FC229E4218FBFF4922C78538
:1000A000E631B18CDC7DA068D81CF1447EFB436A4C
:1000B0005405CE479E5E5ED6843F091C3C766DA3F8
:1000C000B64D2018CBE0DE5581A02096F2C1829A71
:1000D0006AD704F8363EDE9E57C5C0871DB59ED947
:1000E0009B1BCE81047552999D01894B1CCE4CBF40
:1000F000E839615325FCA27F5E5B8FA188D9AD7E74
:1001000027896A02000000000000000000000000D3
:1001100000000000000000000000000000000000DF
:1001200000000000000000000000000000000000CF
:1001300000000000000000000000000000000000BF
:1001400000000000000000000000000000000000AF
:10015000000000000000000000000000000000009F
:10016000000000000000000000000000000000008F
:10017000000000000000000000000000000000007F
:10018000000000008964D657020000000000000053
:10019000000000000000000000000000000000005F
:1001A000000000006BEE1637BDB12E662492A90444
:1001B0001EAEC841570DF5243294280C1368CA5559
:1001C0008DD29F41435157A876B22DBE5AB4C4E593
:1001D00035DC4313437A40AB36905927376222DE31
:1001E000B39AB7A886196551B14756CFA9B6BE4E86
:1001F0006F5B4240884BDF8129646CA57CBF7D67C3
:10020000A35EC68D64378F08E5E9169814E9BD57DB
:100210007E05F67847F58A25D377A899E22697A236
:1002200063C043AF80EBC396F86A0A86DEE15E24C2
:1002300062299F8F024197DBAE208DD3000E2B9554
:100240001AB6E62509ECACC9EFA4071C24C2E71ACC
:10025000BD7BA64DA75674E5E6B8DDF73DF2F0A7E5
:10026000C2422AC2EB86EC170D028CDC790E16D73F
:1002700038BB8707CDB9AB54DFAF20A1D5D0CDBBFC
:10028000362D83AD3497D46FEF5FDA74DE52238E50
:100290004A14F58AE29CA5043356DE21158E3FE30D
:1002A000E4D4407C93DB65EE000000000000000019
:1002B000000000000000000000000000000000003E
:1002C000000000000000000000000000000000002E
:1002D000000000000000000000000000000000001E
:1002E000000000000000000000000000000000000E
:1002F00000000000000000000000000000000000FE
:1003000000000000000000000000000000000000ED
:1003100000000000000000000000000000000000DD
:100320000000000000000000003000000000040099
:10033000B028040000040400FC2204006000000057
:10034000000000008800000000000020FFFFFFFF09
:10035000FFFFFFFFFFFFFFFFFFFFFFFF9A0200000D
:10036000000000000B000000F000135C0000000023
:10037000B1000000FFFFFFFF0D00000000000000C3
:100380000300000033333333333333333333333306
:10039000333333333333333333333333333333332D
:1003A000333333333333333333333333333333331D
:1003B000333333333333333333333333333333330D
:1003C00033333333333333333333333333333333FD
:1003D00033333333333333333333333300000000B9
:1003E00033333333333333333333333333333333DD
:1003F000285002189541249296A9A6EA44D21600E4
:1004000000000200410404002D2204002D220400FB
:100410002D2204002D2204002D2204002D22040090
:100420002D2204002D2204002D2204002D22040080
:100430002D2204002D2204002D2204002D22040070
:100440002DE9F04188B001F05DFA814B1B6813F093
:10045000E10F09D07F48016841F4800100F018FFE6
:1004600000BF01227C4B1A607C4E7D4F37607D4C73
:1004700001252560282000214FF4005201F0C2FD23
:10048000B0FA80F14909784800F002FF01F098F9CC
:1004900001F04CFA0146754801F076FB744BD3F835
:1004A0008083404600F096FF0920414600F074FF2B
:1004B00000F0D4FB00F032FC3760256000F004FA55
:1004C0004FF404231B68B3F1FF3F4DD14FF4882351
:1004D0001B68B3F1FF3F4CD14FF48823D3F85C3352
:1004E0004FF40422D2F85C23934204D0934294BF89
:1004F000002301232DE04FF48823D3F860334FF419
:100500000422D2F86023934204D0934294BF002384
:1005100001231EE04FF48823D3F864334FF4042200
:10052000D2F86423934204D0934294BF0023012362
:100530000FE0504BD3E900234F49D1E900018B4232
:1005400008BF82421AD0994208BF904234BF0123AB
:100550000023002B15BF4FF404274FF488274FF4D6
:1005600088284FF404280DE04FF404274FF488281E
:1005700008E04FF488274FF4042803E04FF40427E1
:100580004FF488283D4D01232B603D4E34683D4893
:10059000214601F0F9FA3046611C00F079FE284648
:1005A000002100F075FE052C02D94346B8461F46CF
:1005B0002B4A2A4B1A6001222A4B1A60ADF104051E
:1005C00007AE2C4600F02CFA44F8040FB442F9D1DF
:1005D000684600F081FB2C4B191F03F11C0E2846C6
:1005E000002251F8044F50F8043F63401A4371450C
:1005F000F7D1B2FA82F25209544200F011FA2040C7
:1006000045F8040FB542F8D100F0B8FE0446404664
:100610004FF470316A4600F0BFFB204600F0B6FE92
:1006200038464FF470316A4600F0B6FB174801F0C7
:10063000ABFA00F003FF01F0F3F87228FBD100F0F1
:1006400007FF3C2000F082FB002008B0BDE8F081ED
:100650000C0000406400004010005540A8045740C2
:100660003C30FC030C007240D040094010230400D1
:1006700000000400684304006843080028010040AB
:100680002C0100401C230400F02204002823040055
:10069000864B03F500604FF0FF3253F8041F0A4009
:1006A0008342FAD1B2F1FF3F40F0E880804B1B68F3
:1006B00013F0010F00F0E48070B5ADF6680D00F0A6
:1006C00047F901F035FDB0F5806FFAD1002101F056
:1006D0009BFD01F02DFDB0F5806FFAD11AA84FF403
:1006E000806101F06FFD1AA84FF4806101F03EFDBA
:1006F0004FF48060014601F087FD01F019FDB0F56F
:10070000806FFAD10DF58D604FF4806101F05AFDD4
:100710004FF48060002101F077FD0022654B1A60E4
:1007200004331A6004331A6004331A6004331A6005
:1007300004331A6004331A6004331A6008331A60F1
:100740000221043B19601046114601F05BFC0028B1
:1007500040F0A580032000210A4601F053FC002848
:1007600040F09D80042000210A4601F04BFC002847
:1007700040F09580052000210A4601F043FC002846
:1007800040F08D80072000210A4601F03BFC002844
:1007900040F085800F2000210A4601F033FC00283C
:1007A0007DD1142000210A4601F02CFC002876D1CE
:1007B000FE2419260025304629462A4601F022FC4F
:1007C00000286CD1013CF6D15EE053F8040B42F8EE
:1007D000040F8B42F9D10AAD4FF4C074204629466C
:1007E00001F0A2FA00285CD101340435B4F5C47FCD
:1007F000F4D109AB11A853F8041F56F8042F4A404E
:100800001A608342F7D112A80AA901F08DFB12A841
:100810002949042201F0A8FB12A801F0ABFB12A8A1
:10082000014601F081FB12A81AA94FF4FC6201F005
:100830009BFB12A801F09EFB0DF6470201380DF656
:100840006705002110F8014F12F8013F634019437A
:10085000AA42F7D1B1B9194900230093B1F5002F8D
:1008600034BF00200120C1F38F011AAA4FF4007396
:1008700001F016FA002818BF042013E00120704789
:100880000220704703200DE01A2000210A4601F0E3
:10089000B9FB30B901AE3246094B0A4995E703204E
:1008A00000E003200DF6680D70BD00BFFC370400AA
:1008B0000000204000315740442304000038040069
:1008C00000335740203357400E4B1B6813F0100F76
:1008D00016D10D4B1B6813F0010F11D010B501F0AC
:1008E000C3FB0A4801F050F9FFF7D2FE044608485E
:1008F000214601F049F944F08004064B1C6010BD0C
:10090000704700BF580145400000204048230400C4
:100910005023040004005140034A1368591C11601D
:10092000187000225A707047280801000FB400B5F3
:1009300083B004AA52F8041B0192044801F054F851
:1009400003B05DF804EB04B0704700BF1909040060
:10095000284B002103F5806243F8041B9342FBD12E
:10096000F0B585B02449B2234B604FF400430B81AE
:10097000224B1A6812BA04331B681BBA2048066857
:1009800004300568183004684889471C4F8101EB22
:1009900040100C3008601B490968090F032904D076
:1009A00004290CBF0121FF2100E00021F0B20090DA
:1009B000E8B20190E0B202904FF400700390124848
:1009C000FFF7B4FF0C4A141D20464FF4787102F56E
:1009D000797201F07FFA20464FF4806101F0C6FB86
:1009E00001F008FC0028FBD14FF4806101F00CFC01
:1009F00005B0F0BD2C080100280801004400454066
:100A000000305740F8FF01405423040008B500F0BF
:100A10008DFF024B1B68184480B208BD7000414036
:100A200008B500F083FF024B1B68184408BD00BFE7
:100A3000700041402DE9F0478A4619469146DAF8A0
:100A400000300C68A4FB0267F61847F10007BC46AB
:100A5000044654F8083B06FB03FE4268AEFB022343
:100A6000921943F100031E460F46554600F5C27821
:100A700057F8040FA9FB000110EB0C0041F1000135
:100A80006A68801841F100018C4654F8042BAEFBD3
:100A90000223921943F10003121843F1000345F8B1
:100AA000042B1E464445E3D10E44CAF87C61BDE8E0
:100AB000F08700BF2DE9F04107460E4698460B1F10
:100AC00001F5BE70002143F8041F8342FBD1141FBF
:100AD00002F5BE753846314654F8042F4346FFF7F9
:100AE000A9FFAC42F6D1BDE8F08100BF0368084A17
:100AF00093420AD002F1155202F52F2202F55572E7
:100B00009342044B08BF184670470348704700BF24
:100B100039653DB9F8240400742304002DE9F84335
:100B20000D461446FFF7E2FF002800F081800646DC
:100B3000404F39462A462B46FFF7BCFF304607F5A3
:100B4000C0713A462B46FFF7B5FF3B4A131F02F52B
:100B5000BE72002143F8041F9342FBD13046364950
:100B60000122364BFFF766FF5F25DFF8CC90DFF8F8
:100B7000CC800027304649463A464346FFF75AFFA5
:100B8000013DF7D12C49D1F8FC20D1F87C315340FC
:100B9000C1F87C312A4B5340C1F8FC3001F1F80315
:100BA00001F5BC7153F8042FD2431A608B42F9D17E
:100BB000FFF72CFF6022234E1F4900F1D303A6FB51
:100BC0000350800900EB4000A3EB401000F5805576
:100BD00051F820306B4041F82030013AEDD1FFF759
:100BE00015FF0821144DD33000F00700A4EB80035B
:100BF000DB691ABA00F1100655F8203073405340F3
:100C000045F820300139EED10B4C20464FF4C0712D
:100C1000621801F05FF904F5BE720B4B0B4852F8F5
:100C2000041F43F8041B8342F9D10022074B1A60CA
:100C3000BDE8F8832C0C010068060100AC0D010032
:100C4000FFFF0100ABAAAAAA041009402410094022
:100C50004FF4C270704700BF0020704708B51248BB
:100C6000124900F015FB12481F2100F011FB11483A
:100C7000012100F00DFB1048104900F009FB10485D
:100C80001F2100F005FB0F48012100F001FB0E4879
:100C90000E4900F0FDFA0E481F2100F0F9FA0D4848
:100CA000012100F0F5FA08BD3001094048060100B5
:100CB00034010940000009403801094008080100DA
:100CC0003C01094004000940400109408C18010022
:100CD000440109400800094008B50246034B184684
:100CE0000349C91A01F0F6F808BD00BF6806010003
:100CF0000808010008B50648072100F0C9FA0548B0
:100D0000072100F0C5FA0448072100F0C1FA08BD28
:100D100000000940040009400800094008B50748E0
:100D20004FF4872100F0B4FA0548064900F0B0FA04
:100D30000548072100F0ACFA08BD00BF38020940A1
:100D40003C020940FFC70700E400094010B5044613
:100D500000F08CFD0028FBD004220C4B1A604FF4ED
:100D60007A3000FB04F00A4B18600122083B1A603D
:100D70001022084B1A60383B1E221A601A6842F093
:100D800001021A60032001F053FA10BD6C0000400C
:100D9000480054404C0000402DE9F04F89B0074610
:100DA000D34CA4F104091C344B46002543F8045FDE
:100DB000A342FBD10368B3F1FF3F40F00482D0F8B7
:100DC00028338B4200F2FF81D0F82C33984200F296
:100DD000FA810144D0F830338B4200F2F481D0F82C
:100DE0003433984200F2EF81D0F838339942C0F0A2
:100DF000EA810492064600F5D27303939B46184697
:100E0000FFF774FE002800F0DE8100F017FBB94800
:100E1000D6F8341300F03CFAD6F83833013BD6F854
:100E20003413B548591A00F033FAB448032100F0DE
:100E30002FFA00F07BFD8246AD4D05F120084046BB
:100E400001F064F806F5C4720592404611461C2272
:100E500001F08AF85846FFF749FE8346FFF7F8FE8F
:100E600002464046594601F07FF8D6F8282340460E
:100E700006F54A71A2F54A7201F076F8404601F093
:100E800079F800F053FD9E4A1368DFF8E0E29D49CF
:100E900041F823E0CAEB00009B4941F823000133ED
:100EA00003F01F03136005F17C0305F51F75974AD6
:100EB00043F8042FAB42FBD1954900230125DFF80D
:100EC00030E203F01F0205FA02F05A1107EB82022A
:100ED000D2F83C23104204D008680EF1800242F898
:100EE000230001330431802BEBD1D6F8A401FFF7A6
:100EF000B3FE40B1874B1A687D4BC3F89420864AF5
:100F00001268C3F898207A4D05F180004FF4007103
:100F100005F1400200F0DEFF05F51F7305F27C4588
:100F20007E4A43F8042FAB42FBD1DFF84482002510
:100F30004FF0010AAB4605F01F030AFA03F26B11EA
:100F400007EB8303D3F84C331A420DD0CDF81CB015
:100F500005F1800007A900F0E7FED8F80020079B04
:100F600053405840C8F80000013508F10408802DAE
:100F7000E1D15F4D05F1200805F1600A05F520700B
:100F80004FF40071524600F0A5FF00F005FC05F19A
:100F90003C0300936248042142460B4600F0F4FDF6
:100FA00005F15C0300935F48042105F140020B4604
:100FB00000F0EAFD05F17C0300935B4804215246F2
:100FC0000B4600F0E1FD404660212A4600F082FF1A
:100FD000049B181F05F27C45AE46494650F8042F85
:100FE00051F8043F53404EF8043F8C42F6D14F4B2A
:100FF0004F4955F8042F43F8042B8B42F9D10022B6
:101000004B4B1A6000BF243B1B6813F0010F26D125
:1010100000F08CFC04460398311D354AFFF77EFD35
:1010200000F084FC364A1368424D364941F823509B
:10103000001B354941F82300013303F01F031360FF
:101040003D4B1B6813F0010F09D03C4C3C4D204632
:1010500059F8041F00F01CF90434AC42F7D1364BA8
:101060001B6813F0010F00F0AE803648002100F03D
:101070000FF93548332100F00BF905984FF4D07182
:101080001B4A00F027FF314CDFF86490DFF8E48062
:101090002F4D04EB080359F80310D7F85C332046B2
:1010A000594000F0F5F80434AC42F2D128484FF032
:1010B000FF3100F0EDF82748D6F8601300F0E8F8AB
:1010C0002548022100F0E4F82448002100F0E0F86F
:1010D0002348314600F0DCF8D6F8281321480139BE
:1010E00000F0D6F82048032100F0D2F844E000BF19
:1010F0002C0F010080020940840209407C02094053
:10110000AC18010030190100B0180100ACDABAA324
:10111000300045404400454048004540C3553CAA86
:101120000828040018280400282804000410094096
:10113000241009403828040000100940C000004075
:10114000E000004024010040DC020940003157402B
:101150001C315740243157402031574028315740E7
:10116000380209403C020940E4000940002804001C
:10117000AC11010000CFA8BF1448002100F088F88E
:10118000134BD3F88043D6F88003204300F022F9B4
:10119000FFF7B0FD06F58065D6F88003204300F028
:1011A00019F9D6F880130D20214300F0F5F809480D
:1011B000314600F0E9FC0848294600F069F8D5F806
:1011C00000D0D5F804F009B0BDE8F08F0401094063
:1011D000000004004028040008ED00E010B40446BC
:1011E0000B4B586888B1D3F82833A3420AD0094A78
:1011F000002303E052F8041FA14205D001338342CB
:10120000F8D102E0002000E018465DF8044B70477A
:101210000000010028030100F8B50B4616460E4CED
:1012200000F1CA05023054F820700C4854F825101B
:101230001A460B4B7B4000F0A7FC0A4B186854F889
:101240002520094B1A60042204331A60C0F3810080
:10125000304300F0EDFFF8BD000001004C28040011
:10126000957168345001454010010040074A002341
:101270005360136002F5497302F244624FF0FF318C
:1012800043F8041F9342FBD1704700BF00000100E8
:1012900038B505460C46FFF7A1FF0E4B5B6883424D
:1012A00010D1C72B02D85A1C0A494A60094903F1D8
:1012B000CA0241F822500233074A624041F8232013
:1012C0002C6038BD0230044B6340024A42F82030A3
:1012D0002C6038BD000001009571683408B5FFF737
:1012E0007DFF074B5B68834206D00230044B53F806
:1012F00020300448584008BD4FF0FF3008BD00BF03
:10130000000001009571683470B506460D46FFF780
:1013100065FF0446174B5B68834210D1C72B02D888
:101320005A1C14494A60134903F1CA0241F8226069
:101330000233114A6A4041F82320356017E00D4A14
:1013400000F1CA0352F823301E680B4B7340811C16
:1013500052F82120934203D031460222FFF75CFF6E
:10136000B54204D0204629460222FFF755FF284601
:1013700070BD00BF0000010095716834024B186811
:1013800001301860704700BF00000100014B186079
:10139000704700BF0000010008B50A4B1A680A4BED
:1013A0001B6883420BD040EA0343084803600520D2
:1013B000074B1860C2F38100084300F039FFFFF7C4
:1013C000DDFF08BD50014540000001001001004054
:1013D000140100402DE9F041804615480021FFF737
:1013E00057FFFFF713FB134B5B68E3B1044600267E
:1013F000104D114FD334B4FBF3F203FB124404F14C
:10140000CA0355F82330196881EA0702A31C55F86E
:1014100023309A4203D020464246FFF7FDFE0136B4
:101420006B68B342E6D8FFF7A9FFBDE8F08100BFC3
:101430001C000B40000001009571683408B503489A
:1014400000F0A2FB00F038FA08BD00BF64280400D9
:101450002DE9F04F85B0652000F050FA732000F0C0
:101460004DFA632000F04AFA752000F047FA652033
:1014700000F044FA002303939A464FF0FF3B99464D
:10148000DFF8108308F580640294454600F0C8F93F
:1014900005F8010BA542F9D108F120004FF478714D
:1014A000029A00F017FDA8F1040108F57F7008F119
:1014B0001C06002550F8042F51F8043F53401D43EB
:1014C000B142F7D1002D40F0F380D8F8206026F02B
:1014D0007F46039B9E4240F0EB8040464FF4806184
:1014E000029A00F0F7FC08F2FF3208F21F410846AA
:1014F00012F8013F002B08BF43F0010301F8013F40
:101500008242F5D1002E78D1D8F82830B3F1FF3FD0
:1015100040F0F680D8F85033B3F5703F00F2F28017
:10152000D8F82420B2F5804F40F0EE80C3F30A03D0
:10153000002B40F0EB8008F5E670FFF7D7FA0028A3
:1015400000F0E68008274FF0000A50463946524620
:1015500000F010FC002840F0DD800137802FF4D12E
:1015600008274FF0010A50463946002200F002FCDD
:10157000002840F0D1800137802FF4D17E494FF010
:10158000FF307E4F51F81C2C51F8203C1A4051F886
:10159000183C1A4051F8143C1A4051F8103C1A40BB
:1015A00051F80C3C1A4051F8083C1A4051F8043CE0
:1015B000134018402031B942E4D17149714F51F8BC
:1015C0001C2C51F8203C1A4051F8183C1A4051F894
:1015D000143C1A4051F8103C1A4051F80C3C1A4087
:1015E00051F8083C1A4051F8043C1340184020318F
:1015F000B942E4D1A2E0D8F824A0D8F824300AEB0C
:101600008902934240F29F8013F07F0F40F0868062
:10161000B9F1000F11D0BBF1FF3F0ED000230093B2
:101620004FEA9A40CAF38F0108F588624B4600F0F2
:1016300037FB002874D14FF0FF3BD8F824A04FF0BF
:10164000000980E057F8042F09F1010308EB89092C
:10165000C9F840240BEA020B0AEB8302B2F5002F13
:1016600060D8202B15D1BBF1FF3F0BD00023009396
:101670004FEA9A40CAF38F01039A202300F010FB2F
:10168000002851D10AF1800A4FF0FF3B4FF00009CA
:1016900002E0202B4AD899463B4B9A4503D9D8F80B
:1016A0002030002B02DB394B9F42CBD1731C0393BC
:1016B00008F21F4608F23F4716F8010F00F01EF926
:1016C000BE42F9D1002D7FF4E0AED8F82030002BD7
:1016D000BFF6DBAEB9F1000F0DD0BBF1FF3F0AD072
:1016E000002300934FEA9A40CAF38F01284A4B46E1
:1016F00000F0D6FAE0B90120FFF728FB002037E020
:10170000012035E0022033E0032031E004202FE007
:1017100005202DE006202BE0062029E0092027E007
:101720000A2025E00B2023E00C2021E00D201FE003
:101730000E201DE007201BE00B2019E0B0F1FF3F59
:101740003FF459AFF6E7D8F8282009F1010308EB78
:101750008909C9F840240BEA020B0AEB8302B2F5AF
:10176000002FE9D808F1280708F58862039278E786
:1017700005B0BDE8F08F00BF204004002000080045
:101780002040080020000C00FFFF0700C8170100E0
:101790000C180100CC13010008B500F02FF818B1A7
:1017A00000F03EF8722805D000F00AF8034800F077
:1017B000EBF908BDFFF74CFE08BD00BF6C28040024
:1017C0000A4B1B6813F0010F0ED1094A136843F04E
:1017D000200313604622074B1A6041F2A932064BE0
:1017E0001A60012204331A60704700BF5801454057
:1017F0006C0000402800064008006040064B1B6853
:1018000013F0010F06D1054B186880F08000C0F37B
:10181000C0107047002070475801454014006040D8
:1018200008B5074B1B6813F0010F06D1FFF7E6FF61
:101830000028FBD0034B186808BD002008BD00BF7E
:101840005801454000006040064B1B6813F0010F33
:1018500006D1054B186880F0010000F001007047C8
:10186000012070475801454014006040074B1B6839
:1018700013F0010F08D1064B186800F03000302833
:1018800014BF0020012070470120704758014540D7
:101890001400604010B50446054B1B6813F0010F9F
:1018A00005D1FFF7D1FF0028FBD0024B1C6010BD13
:1018B000580145400400604008B50D4B1B6813F00B
:1018C000010F14D1FFF7D2FF0028FBD00C22094BE7
:1018D0001A600722A3F5BA731A600322064B1A6036
:1018E00001E0FFF79DFFFFF789FF0028F9D108BD50
:1018F00058014540080206400C00604008B5FFF75B
:10190000C9FF08BD064A136843F080731360054A97
:10191000136843F0010313600022034B1A60704701
:10192000FCED00E0001000E0AC180100014B18686D
:10193000704700BF041000E02DE9F0410D4800F0B1
:1019400023F90D4B1B6883B10C4E0D4D0024DFF8BD
:101950003880094F404656F8041F55F8042F00F010
:1019600013F901343B68A342F4D8064800F00CF99F
:10197000BDE8F08170280400AC1801002C190100AA
:10198000AC180100402304008028040008B5034679
:10199000014A505C984708BD8828040038B50546C0
:1019A0000C46C1F30311FFF7F1FF284604F00F01C5
:1019B000FFF7ECFF38BD00BF70B5064615461C4664
:1019C0000139002901DC9A4205D33046B5FBF4F217
:1019D0002346FFF7F1FFB5FBF4F1304604FB11514C
:1019E000FFF7D4FF70BD00BF2DE9F04F83B006466E
:1019F0000C4690464FF00D0A4FF000094FF0250BB2
:101A0000BBE0671C252D05D16578002D40F0A68030
:101A10003C46B2E00A2D01D15046B0472846B047B7
:101A20003C46AAE01C46A5F13002D2B2092A0BD8E6
:101A30001C4607EB8707303D05EB470713F8015BB2
:101A4000002DEFD199E04F46632D57D009D8252DB1
:101A500014D001D895B17CE0482D65D0582D2ED0FA
:101A600077E0732D3CD004D8642D0AD0682D4CD07B
:101A70006FE0752D18D0782D21D06AE05846B04718
:101A80007BE008F10405D8F80080B8F1000F03DA14
:101A90002D20B047C8F100083046394642460A2397
:101AA000FFF78AFFA84668E008F10405304639468A
:101AB000D8F800200A23FFF77FFFA8465DE008F171
:101AC00004030193D8F80020582D01D112BA082739
:101AD000304639461023FFF76FFFDDF804804CE0F5
:101AE00008F10405D8F800703878002840D0B047D5
:101AF00017F8010F0028FAD1A8463EE008F10405C6
:101B000098F80000B047A84637E0474657F8085B0A
:101B1000D8F8048075B3304618F8011BFFF73EFF74
:101B2000013DF8D1B84628E0474657F8081BD8F8D9
:101B3000042002EB0108F9B14546C8EB0108304624
:101B400015F8011DFFF72AFF15EB080FF7D1B8466E
:101B500013E05846B0472846B0470EE00234A5F1DE
:101B60003003DBB2092B3FF66EAF23464F465FE7EB
:101B7000A84602E0B84600E0B8462578002D7FF47C
:101B800040AF03B0BDE8F08F0FB400B583B004AA36
:101B900052F8041B01920448FFF726FF03B05DF8DA
:101BA00004EB04B0704700BF9518040010B4124B4A
:101BB000124A1A6000F1805000F5E41084002160A0
:101BC0001B6833B163230C4A106810B1013BFBD191
:101BD00018B9236863B10A4B02E00023236008E0D0
:101BE000206830B1013BFBD118B10023236000E035
:101BF00000205DF8044B7047C8007240E12419B121
:101C00007F841E00F8B5054620484FF0FF3404607D
:101C10000468002606601E486040002835D10698FA
:101C2000000400F4803089B20143581E400400F4DF
:101C30007810014315480160DBB102EB83031146C4
:101C4000144CA41A621851F8040B10609942F9D18F
:101C50000FE028463146FFF7A9FF38B9386860B170
:101C6000013CF6D1F8BD0C4B1868F8BDF8BD18461C
:101C7000F8BD0824094E084FEBE728460749FFF74F
:101C800095FF03460028F2D1EDE7F8BD0800724049
:101C9000FFFF3F0048007240D40072401828182708
:101CA0002DE9F04F83B080460D4693461C46DDF883
:101CB000309001F01F07FE181F2E0DD9C7F1200725
:101CC000CDF800903B46FFF79DFF30BBA6F1200406
:101CD00025F01F05203500E00027202C12D90BEB42
:101CE00087064FF0200ACDF800904046294632463C
:101CF0005346FFF787FF88B92037203C20358036D0
:101D0000202CF0D85CB1CDF80090404629460BEB72
:101D100087022346FFF776FF02E001E000E00020A3
:101D200003B0BDE8F08F00BF10B502460C460D4B66
:101D30004FF0FF3119601968002018600A484840C8
:101D400078B992B242F440321A6001200749FFF795
:101D50002DFF30B9064B186818B9943B1B682360F7
:101D600010BD10BD08007240FFFF3F00651702164E
:101D7000D40072402DE9F041144B4FF0FF341C6049
:101D80001C6800261E60DFF8508084EA0808B8F15D
:101D9000000F18D105464B029BB2120402F48032A8
:101DA00013430A4A13602D24094E0A4F2846314630
:101DB000FFF7FCFE30B93B682BB1013CF6D14FF088
:101DC000080800E080464046BDE8F0810800724007
:101DD00027594131D4007240FFFF3F0030B4002941
:101DE00051D00C4610F0030F08D0294A10F8013BDF
:101DF0001370013C47D010F0030FF7D11F2C27D9E7
:101E000000F120032146224A53F8205C156053F864
:101E10001C5C156053F8185C156053F8145C156071
:101E200053F8105C156053F80C5C156053F8085CAF
:101E3000156053F8045C1560203920331F29E3D85E
:101E4000A4F1200323F01F032033184404F01F04DF
:101E5000032C0FD9024623460D4D52F8041B29606E
:101E6000043B032BF9D8231F23F003030433184446
:101E700004F003044CB10444054A10F8013B13700C
:101E8000A042FAD101E00024F4E730BC704700BF63
:101E9000400457400D4A1368002BFCD0002910DD88
:101EA00010B4024600230A4C241AA05842F8040B2E
:101EB00001338B42F9D10022044B1A605DF8044BC8
:101EC00070470022014B1A60704700BF8C045740D6
:101ED0004404574038B5144600230A4A13608C3A2C
:101EE0001160043213604FF48032074B1A600122F4
:101EF00008331A60FFF772FF20460821FFF7CAFF78
:101F000038BD00BF8C045740080457400022044BE2
:101F10001A60044A843B1A60012208331A60704731
:101F20008C0457401000010010B400220A4B1A60C4
:101F30000B1F01F11C040948401AC21853F8041F72
:101F40001160A342F9D1064A064B1A6001220833F8
:101F50001A605DF8044B70478C0457406804574082
:101F6000300001000804574008B508461146FFF745
:101F700035FF08BD10B504460821034B1960FFF773
:101F800089FF204610BD00BF1004574038B51446E5
:101F90000023094A13608C3A116004321360074A27
:101FA000074B1A60012208331A60FFF717FF20461B
:101FB0000521FFF76FFF38BD8C0457400200010078
:101FC000080457400022044B1A60044A843B1A60FC
:101FD000012208331A6070478C0457401200010038
:101FE00008B508461146FFF7F9FE08BD10B50446CE
:101FF0000822034B1A600521FFF74CFF204610BD55
:102000001004574038B505460024144B1C6040F0BE
:10201000400408331C604FF480348C3B1C60012466
:1020200008331C6032B108461146FFF7D7FE08227C
:102030000B4B1A60094A1368002BFCD00022074B97
:102040001A6003F53A5318331C6824B10548294631
:102050002246FFF799FD204638BD00BF8C0457404B
:10206000100457409C280400224B4FF080521A6005
:102070004FF000521A60204A136843F004031360C3
:10208000203A136843F0040313605032136843F09E
:1020900004031360103A136823F004031360002153
:1020A000164B1960643B1A6822F003021A601A6822
:1020B00022F008021A601A6822F004021A601A68F4
:1020C00042F010021A601A6842F020021A601A6880
:1020D00042F040021A6004331960243303221A606C
:1020E0001A6842F010021A601A6842F002021A607E
:1020F000704700BF640000405C000640640051402F
:10210000014B1868704700BF40005140014B1868F0
:10211000704700BF44005140014B1868704700BF32
:1021200030005140014B1868704700BF34005140E7
:102130000C4B1B680C4A106880EA030212F4806F93
:102140000AD1C3F30903C0F30900834207D088BF53
:1021500000F58060C01A70474FF48060704700201F
:10216000704700BF400051404400514070B4134BD1
:102170001C6811F0030F1ED103291CD90430251D42
:10218000043921F003010D440D4E10F8042C10F811
:10219000031C10F8023C1B0443EA0123134310F80C
:1021A000012C43EA0263C4F3870246F82230043468
:1021B0000430AC42E9D170BC704700BF34005140DC
:1021C00000105140094B1A6871B110B44118034610
:1021D000101A074C1A18C2F30902125D03F8012BFA
:1021E0008B42F7D15DF8044B704700BF400051406F
:1021F00000145140034B186880F00400C0F38000C5
:10220000704700BF5000514010B4054C236818447B
:10221000044A13681944206011605DF8044B70474C
:102220004000514034005140704700BF20BFFDE7DF
:1022300030B4032846D1264B1B684FF0FF322549A6
:102240000A6001F5A81160310A6001F54951303189
:102250000A6013F4005F09D00022A1F59C01A1F5EA
:102260004B510A6080310A601C310A6013F4804FC0
:1022700009D04FF40021184A116001214032116049
:10228000A9216C3A116013F4004F0BD001221349BD
:102290000A604FF400244C390C6040310A60A921D7
:1022A0000F4A116013F4805F0CD00E4A0E4C0023CD
:1022B0000E49156823600B601360332DF9D101E0DE
:1022C00020BFFDE702380128FAD930BC704700BFB3
:1022D00050014540500042402C40094078400940A0
:1022E00000400940D0020940D8020940D402094008
:1022F000D3982DADC6CA5AA9197C240D00A1F0B5FA
:10230000204F0412FDF5C2A8CEB29B7F98ABB9AAAC
:102310000A426C6472207C25750A00007265747232
:10232000797C25750A0000004E6F2076616C696427
:1023300020525720696D61676520666F756E642E47
:102340000A00000052534100626F6F74203A00008F
:1023500025640A00253032783A253038782530381F
:10236000783A2530327825303278253032783A255F
:102370003034780039653DB9F70684C4C41F2CF1A8
:10238000375309D48D441F769C151E9389830B8F78
:1023900094BBC90F9BE4CCD96F10ECD275E731EF39
:1023A00060420F7E9EC0B9149EA3E917A93C613616
:1023B000C63CFA14C1F3D5B4DC8169EEF3A2F9117D
:1023C0009BC6190F2578F15248AD0233C7269C747D
:1023D000A0C1FF5751197DB48C5BB2C7B64FCC88F2
:1023E00080A1479BD01CAC1E4AA91CEDCD39A8E2A8
:1023F0006ADC308F7B87A7701721358E7A4F222EAB
:10240000BD63A756C24F02340EB9DC8D3AD21BBD54
:102410005B5C875FC11B78F6C5CD46389AFED44B0E
:102420003BEB076515C97996BBDA116F0D1D61ECA1
:102430009FA090080F051B4C4D13A38C0181F25DEA
:10244000287FB5F898B52F4A64D1A104D70C52DD86
:102450008F35DBD1A7C10332A4082817CCE0ABFB32
:102460007988FADCB2F1959D750506DE8903FF5A7D
:1024700012E0D65196370EE0000000000000000088
:10248000000000000000000000000000000000004C
:10249000000000000000000000000000000000003C
:1024A000000000000000000000000000000000002C
:1024B000000000000000000000000000000000001C
:1024C000000000000000000000000000000000000C
:1024D00000000000000000000000000000000000FC
:1024E00000000000000000000000000000000000EC
:1024F00000000000000000008D5888DEBBD522B629
:10250000DDA15E7DE56041D58089C6F24780E14C62
:10251000D3E9D9969F4922E4E706EEEAB39D01CDBF
:10252000340D9A3A36A20FC3C91E3CF101C91A787C
:10253000F9E361E38E103CD7A47A82CFAE1551C87F
:10254000EC7DE7D28774614332FF5E0A5E82FD292B
:10255000C285652B869AA1AE4AB0D1FD91E53E6554
:10256000C78B9E6480B83AADDBA0E6C45C08B93581
:102570009DBC897F84E1AEBF8E18CB0AC3A2A76938
:10258000D1E2382328C8C53BE1787F3F0B176F2580
:10259000BF1C15448CCEBD5CC2173BF5FFC5D78868
:1025A000D70E5316BEEEA81D2619F41F413A77FC2C
:1025B000D708D89920240D5267039D3E19774AD534
:1025C000FC4B65C8B510967F9660F67053136B2868
:1025D0000332E669F38328093B352BD96A2FCA07F2
:1025E0001A992012E0CFDB7FAFA82CE1A6C6D4A1B8
:1025F000AB0B323979508F7E97A61AB600000000D7
:1026000000000000000000000000000000000000CA
:1026100000000000000000000000000000000000BA
:1026200000000000000000000000000000000000AA
:10263000000000000000000000000000000000009A
:10264000000000000000000000000000000000008A
:10265000000000000000000000000000000000007A
:10266000000000000000000000000000000000006A
:102670000000000000000000000000008D5888DE0F
:10268000BBD522B6DDA15E7DE56041D58089C6F26D
:102690004780E14CD3E9D9969F4922E4E706EEEA68
:1026A000B39D01CD340D9A3A36A20FC3C91E3CF139
:1026B00001C91A78F9E361E38E103CD7A47A82CF7E
:1026C000AE1551C8EC7DE7D28774614332FF5E0AD4
:1026D0005E82FD29C285652B869AA1AE4AB0D1FDE6
:1026E00091E53E65C78B9E6480B83AADDBA0E6C439
:1026F0005C08B9359DBC897F84E1AEBF8E18CB0ADA
:10270000C3A2A769D1E2382328C8C53BE1787F3F3F
:102710000B176F25BF1C15448CCEBD5CC2173BF553
:10272000FFC5D788D70E5316BEEEA81D2619F41F75
:10273000413A77FCD708D89920240D5267039D3E73
:1027400019774AD5FC4B65C8B510967F9660F67030
:1027500053136B280332E669F38328093B352BD9E1
:102760006A2FCA071A992012E0CFDB7FAFA82CE1AD
:10277000A6C6D4A1AB0B323979508F7E97A61AB674
:102780000000000000000000000000000000000049
:102790000000000000000000000000000000000039
:1027A0000000000000000000000000000000000029
:1027B0000000000000000000000000000000000019
:1027C0000000000000000000000000000000000009
:1027D00000000000000000000000000000000000F9
:1027E00000000000000000000000000000000000E9
:1027F00000000000000000000000000000000000D9
:10280000736861202000000048696D67203D2568DD
:102810002E2E25680A00000048667373203D256847
:102820002E2E25680A00000048696E66203D256846
:102830002E2E25680A00000072736120200000001F
:102840006A756D702040253038780A0021657870EF
:1028500020402538783A2025782076732E20257858
:102860000A0000006F6F70733F7C00006E6F0A00FB
:102870000A66756E63207C206379636C65730A0059
:1028800025733A2025750A00303132333435363716
:1028900038394142434445460000000043657274A4
:1028A000202532753A206661696C2025780A00007F
:1028B000FFFFFFFFFFFFFFFFFFFFFFFFFFFFFFFF28
:1028C000FFFFFFFFFFFFFFFFFFFFFFFFFFFFFFFF18
:1028D000FFFFFFFFFFFFFFFFFFFFFFFFFFFFFFFF08
:1028E000FFFFFFFFFFFFFFFFFFFFFFFFFFFFFFFFF8
